:020000040800F2
:1000000000000820D91D00086D0700086F070008D0
:10001000710700087307000875070008000000005A
:10002000000000000000000000000000770700084A
:1000300079070008000000007B0700087D07000822
:10004000291E0008291E0008291E0008291E000874
:10005000291E0008291E0008291E0008291E000864
:10006000291E0008291E0008291E0008291E000854
:10007000291E0008291E0008291E0008291E000844
:10008000291E0008291E0008291E0008291E000834
:10009000291E0008291E0008291E0008291E000824
:1000A000291E0008291E0008291E0008291E000814
:1000B000291E0008291E0008291E0008291E000804
:1000C000291E0008291E0008291E0008291E0008F4
:1000D000291E0008291E0008291E0008291E0008E4
:1000E000291E0008291E0008291E0008291E0008D4
:1000F000291E0008291E0008291E0008291E0008C4
:10010000291E0008291E0008291E0008291E0008B3
:10011000291E0008291E0008291E0008291E0008A3
:10012000291E0008291E0008291E0008291E000893
:10013000291E0008291E0008291E0008291E000883
:10014000291E0008291E0008291E0008291E000873
:10015000291E0008291E0008291E0008291E000863
:10016000291E0008291E0008291E0008291E000853
:10017000291E0008291E0008291E00080000000092
:10018000291E0008291E0008291E0008291E000833
:10019000291E0008291E0008291E0008291E000823
:1001A000291E0008291E0008291E0008291E000813
:1001B000291E0008291E0008291E0008291E000803
:1001C000291E0008291E0008291E0008291E0008F3
:1001D000291E0008291E0008291E0008291E0008E3
:1001E000291E0008291E0008291E0008291E0008D3
:0801F000291E0008291E000869
:1001F8000348044B834202D0034B03B118477047AE
:100208000C0000200C0000200000000005480649F2
:100218000B1AD90F01EBA301491002D0034B03B10C
:10022800184770470C0000200C0000200000000058
:1002380010B5064C237843B9FFF7DAFF044B13B126
:100248000448AFF300800123237010BD0C00002088
:10025800000000002C1E000808B5044B1BB104491F
:100268000448AFF30080BDE80840CFE70000000075
:10027800100000202C1E000870B50D4E0D4D761B89
:10028800B61006D00024013455F8043B9847A6421E
:10029800F9D1094E094D761B01F0C4FDB61006D000
:1002A8000024013455F8043B9847A642F9D170BDA3
:1002B800641E0008641E0008681E0008641E00080A
:1002C800F0B4860746D0541E002A3CD0CAB2034672
:1002D80002E014F1FF3436D303F8012B9D07F8D15F
:1002E800032C29D9CDB245EA05250F2C45EA054549
:1002F80033D9A4F11006360903F1200707EB0617D6
:1003080003F1100242E9045542E902551032BA429B
:10031800F8D1721C14F00C0F03EB021204F00F0654
:1003280013D0331F23F003030433134442F8045B50
:100338009342FBD106F003042CB1C9B21C4403F864
:10034800011B9C42FBD1F0BC704734461346002C7D
:10035800F3D1F8E714460346C2E71A462646E0E713
:1003680053B94AB9002908BF00281CBF4FF0FF3114
:100378004FF0FF3000F06EB9ADF1080C6DE904CE16
:1003880000F006F8DDF804E0DDE9022304B0704768
:100398002DE9F047089D04468C46002B40F08380E9
:1003A8008A42174647D9B2FA82F242B1C2F1200016
:1003B80024FA00F09140974040EA010C94404FEA3B
:1003C8001748230CBCFBF8F61FFA87FE08FB16C17A
:1003D80043EA014306FB0EF1994209D9FB1806F1DD
:1003E800FF3080F01981994240F21681023E3B4469
:1003F8005B1AA4B2B3FBF8F008FB103344EA0344D9
:1004080000FB0EFEA64509D93C1900F1FF3380F028
:100418000581A64540F2028102383C4440EA064084
:10042800A4EB0E0400261DB1D4400023C5E9004307
:100438003146BDE8F08702B9FFDEB2FA82F2002A3F
:1004480050D1CB1B4FEA174E1FFA87F80126B3FB92
:10045800FEFC210C0EFB1C3341EA034108FB0CF3A4
:100468008B4207D979180CF1FF3002D28B4200F287
:10047800E9808446C91AA3B2B1FBFEF00EFB101145
:1004880043EA014408FB00F8A04507D93C1900F1EC
:10049800FF3302D2A04500F2D9801846A4EB080425
:1004A80040EA0C40BFE78B4209D9002D00F0B1802B
:1004B8000026C5E9000130463146BDE8F087B3FAA9
:1004C80083F6002E4AD18B4202D3824200F2B880D2
:1004D800841A61EB030101208C46002DA8D0C5E9E0
:1004E800004CA5E7C2F1200320FA03F6974001FA71
:1004F80002F04FEA174ED9403043030CB1FBFEF629
:100508001FFA87F80EFB161143EA014306FB08F1B0
:10051800994204FA02F409D9FB1806F1FF3C80F06D
:100528008D80994240F28A80023E3B445B1A81B238
:10053800B3FBFEF00EFB103341EA034100FB08F366
:100548008B4207D9791800F1FF3C73D28B4271D9DD
:1005580002383944CB1A40EA064678E7C6F1200C3F
:1005680003FA06F422FA0CF31C4320FA0CF701FAFA
:1005780006F34FEA144E21FA0CF11F433B0CB1FB72
:10058800FEF91FFA84F80EFB191143EA014109FB31
:1005980008FA8A4502FA06F200FA06F308D9611841
:1005A80009F1FF3048D28A4546D9A9F10209214408
:1005B800A1EB0A01BFB2B1FBFEF00EFB101147EA36
:1005C800014700FB08F8B84507D9E71900F1FF31E2
:1005D8002ED2B8452CD90238274440EA0940A7EB67
:1005E8000807A0FB02894F45C64649461AD317D0CB
:1005F8005DB1B3EB0E0267EB010707FA0CFCF240A2
:100608004CEA0202F740C5E9002700263146BDE85A
:10061800F0872E4628460BE70646E9E61846FDE62B
:100628004345E5D2B8EB020E69EB04010138DFE778
:100638000846D2E760468DE78146B9E7664675E722
:1006480030464AE7ACF1020C394413E702383C441F
:1006580024E700BF704700BF82B0064B1A6B42F018
:1006680001021A631B6B03F001030193019B02B0A3
:10067800704700BF0038024008B50948094B0360BD
:100688004FF4E133436000238360C36003610C22AD
:1006980042618361C3610362436200F0D5FB08BD18
:1006A800280000200010014030B5B9B034220021E4
:1006B8002BA8FFF705FE0024269427942894299454
:1006C8002A949022214602A8FFF7FAFD1E4B1A6CC5
:1006D80042F080521A641B6C03F080530093009B15
:1006E8001A4A136823F4404343F4804313601368A1
:1006F80003F440430193019B02252B9501232E937C
:1007080010232F933195329408233393C0233493C5
:100718000423359336932BA800F0C8FB0F232693A8
:10072800279528944FF4A05329934FF480532A9384
:10073800032126A800F02CFE40230293139402A85C
:1007480000F002FF39B030BD0038024000700040B0
:1007580008B501F011FBFFF7A7FFFFF77DFFFFF7D3
:100768008BFFFEE77047FEE7FEE7FEE7FEE7704710
:100778007047704708B501F00BFB08BD82B00A4B03
:100788001A6C42F080521A641A6C02F0805200927D
:10079800009A5A6C42F480425A645B6C03F48043BA
:1007A8000193019B02B070470038024000B589B040
:1007B800002303930493059306930793026803F1B8
:1007C800804303F588339A4202D009B05DF804FBF0
:1007D80003F594335A6C42F010025A645A6C02F0D2
:1007E80010020192019A1A6B42F001021A631B6B04
:1007F80003F001030293029B4FF4C06303930223A7
:10080800049300230593032306930723079303A95F
:10081800014801F09BF9D8E7000002400649CB687F
:1008280023F4E0631B041B0C000200F4E0600343A4
:10083800024A1A43CA60704700ED00E00000FA055A
:1008480030B4154BDB68C3F30223C3F10704042C4F
:1008580028BF04241D1D062D14D9033B4FF0FF3576
:1008680005FA04F421EA0401994005FA03F322EA9F
:1008780003031943002807DB0901C9B2074B1954C0
:1008880030BC70470023E9E700F00F000901C9B246
:10089800034B1954F4E700BF00ED00E000E400E06A
:1008A80014ED00E00138B0F1807F0AD2064B5860A1
:1008B800064AF02182F823100020986007221A6067
:1008C80070470120704700BF10E000E000ED00E035
:1008D80038B5044683680269134342691343C26901
:1008E8001343016808689F4A024013430B6022685B
:1008F800536823F44053E1680B435360A269236AA9
:100908001A4321688B6823F4306313438B60236890
:10091800954A934219D0954A934229D0944A9342D2
:100928003ED0944A934262D0934A934271D0934AFC
:10093800934200F08380924A934200F09480914A57
:10094800934200F0A58010253AE08F4BD3F8903001
:1009580003F00303032B09D8DFE803F00204AE0613
:1009680001252DE004252BE0082529E0102527E0A6
:10097800854BD3F8903003F00C030C2B0ED8DFE82E
:1009880003F0070D0D0D090D0D0D9D0D0D0D0B003F
:10099800002515E0042513E0082511E010250FE0D7
:1009A800794BD3F8903003F03003202B00F0888087
:1009B80019D8002B00F08680102B40F08580042584
:1009C800E369B3F5004F00F0AB80082D00F24081D9
:1009D800DFE815F00701180122013E012B013E0155
:1009E8003E013E013501302B70D10825E8E7664B02
:1009F800D3F8903003F0C003802B69D005D8002BC2
:100A080068D0402B68D10425DAE7C02B66D10825C9
:100A1800D6E75D4BD3F8903003F44073B3F5007F0D
:100A28005ED006D8002B5DD0B3F5807F5CD104255D
:100A3800C6E7B3F5407F59D10825C1E7524BD3F833
:100A4800903003F44063B3F5006F51D006D8002B03
:100A580050D0B3F5806F4FD10425B1E7B3F5406F9F
:100A68004CD10825ACE7484BD3F8903003F44053F9
:100A7800B3F5005F44D006D8002B43D0B3F5805FB0
:100A880042D104259CE7B3F5405F3FD1082597E79D
:100A98003D4BD3F8903003F44043B3F5004F37D0C3
:100AA80005D8BBB3B3F5804F36D1042588E7B3F535
:100AB800404F33D1082583E7022581E702257FE7E8
:100AC80002257DE700257BE7102579E7102577E7E4
:100AD800022575E7002573E7102571E710256FE7F4
:100AE80002256DE700256BE7102569E7102567E704
:100AF800022565E7012563E7102561E710255FE713
:100B080002255DE700255BE7102559E7102557E723
:100B1800022555E7002553E7102551E710254FE733
:100B2800082D5BD8DFE805F005323D5A465A5A5A77
:100B3800510000F0E9FC6268530803EB4003B3FB83
:100B4800F2F39BB2A3F110014FF6EF72914200F25B
:100B580082809AB222F00F02C3F342031343226841
:100B6800D3607BE0F369FFEF0010014000440040D0
:100B780000480040004C0040005000400014014074
:100B880000780040007C00400038024000F0CCFCB7
:100B98006268530803EB4003B3FBF2F39BB20025F2
:100BA800D0E76268304B03EB5203B3FBF2F39BB21E
:100BB8000025C7E700F09CFB6268530803EB40037D
:100BC800B3FBF2F39BB20025BCE76268530803F558
:100BD8008033B3FBF2F39BB20025B3E70125002372
:100BE800B0E700F091FC626800EB5203B3FBF2F34C
:100BF8009BB2A3F110014FF6EF7291422DD82268F3
:100C0800D3602BE000F090FC626800EB5203B3FB6A
:100C1800F2F39BB20025ECE76268144B03EB520336
:100C2800B3FBF2F39BB20025E3E700F061FB6268D7
:100C380000EB5203B3FBF2F39BB20025D9E76268DD
:100C4800530803F50043B3FBF2F39BB20025D0E74A
:100C580001250023CDE7012500E0012500232366B7
:100C68006366284638BD00BF0048E8010024F40048
:100C7800436A13F0010F06D00268536823F4003367
:100C8800816A0B435360436A13F0020F06D002686F
:100C9800536823F48033C16A0B435360436A13F0EB
:100CA800040F06D00268536823F48023016B0B43BA
:100CB8005360436A13F0080F06D00268536823F4A0
:100CC8000043416B0B435360436A13F0100F06D087
:100CD8000268936823F48053816B0B439360436AE3
:100CE80013F0200F06D00268936823F40053C16BF9
:100CF8000B439360436A13F0400F0AD002685368AD
:100D080023F48013016C0B435360036CB3F5801F0D
:100D18000BD0436A13F0800F06D00268536823F49F
:100D28000023816C0B43536070470268536823F4B7
:100D3800C003416C0B435360EBE72DE9F8430546CC
:100D48000F4616469946DDF820802C68E46937EA94
:100D580004030CBF01240024B4423CD1B8F1FF3F86
:100D6800F3D001F021F8A0EB0900404521D8B8F1F3
:100D7800000F1ED02B681A6812F0040FE5D0DA694C
:100D880012F4006FE1D04FF400621A622A68136807
:100D980023F4D07313602A68936823F001039360E7
:100DA80020236B67AB67EB67002385F8703003205F
:100DB80012E02A68136823F4D07313602A689368D2
:100DC80023F00103936020236B67AB67002385F84A
:100DD8007030032000E00020BDE8F88330B583B010
:100DE80004460023C36700F0DFFF054623681B683D
:100DF80013F0080F0CD123681B6813F0040F15D1EA
:100E080020236367A367002084F8700003B030BD17
:100E18006FF07E430093034600224FF400112046F2
:100E2800FFF78BFF0028E6D00320EFE76FF07E4343
:100E380000932B4600224FF480012046FFF77DFFE8
:100E48000028DDD00320E1E768B310B50446436FFE
:100E580003B3242363672268136823F00103136034
:100E68002046FFF735FD012813D0636ABBB9226815
:100E7800536823F4904353602268936823F02A034D
:100E880093602268136843F0010313602046FFF75C
:100E9800A5FF10BD80F87030FFF788FCD9E7204621
:100EA800FFF7E6FEE3E7012070470000002800F0A6
:100EB800068270B582B00446036813F0010F29D08A
:100EC800A74B9B6803F00C03042B1AD0A44B9B6818
:100ED80003F00C03082B0FD06368B3F5803F40D0B4
:100EE800002B54D19E4B1A6822F480321A601A687B
:100EF80022F480221A6039E0994B5B6813F4800F62
:100F0800EAD0974B1B6813F4003F03D06368002BAB
:100F180000F0D781236813F0020F74D0904B9B68C0
:100F280013F00C0F5ED08E4B9B6803F00C03082B5C
:100F380053D0E368002B00F08980894A136843F096
:100F48000103136000F030FF0546854B1B6813F062
:100F5800020F72D100F028FF401B0228F5D90320A8
:100F6800B4E17F4A136843F48033136063682BB39A
:100F780000F01AFF05467A4B1B6813F4003FC9D1ED
:100F880000F012FF401B6428F5D903209EE1B3F559
:100F9800A02F09D0724B1A6822F480321A601A689E
:100FA80022F480221A60E1E76D4B1A6842F480222D
:100FB8001A601A6842F480321A60D7E700F0F4FE2B
:100FC8000546674B1B6813F4003FA3D000F0ECFE06
:100FD800401B6428F5D9032078E1614B5B6813F462
:100FE800800FA6D15E4B1B6813F0020F03D0E36895
:100FF800012B40F068815A4A136823F0F8032169ED
:1010080043EAC1031360236813F0080F46D06369ED
:1010180083B3534A536F43F00103536700F0C4FE90
:1010280005464F4B5B6F13F0020F37D100F0BCFE43
:10103800401B0228F5D9032048E1494A136823F0E8
:10104800F803216943EAC1031360DCE7444A1368E3
:1010580023F00103136000F0A7FE0546404B1B6810
:1010680013F0020FCFD000F09FFE401B0228F5D9E5
:1010780003202BE13A4A536F23F00103536700F032
:1010880093FE0546364B5B6F13F0020F06D000F057
:101098008BFE401B0228F5D9032017E1236813F0C3
:1010A800040F7DD02E4B1B6C13F0805F0BD12C4BA3
:1010B8001A6C42F080521A641B6C03F0805301933F
:1010C800019B012500E00025264B1B6813F4807F57
:1010D8000ED0A368012B1FD0002B35D1204B1A6FDF
:1010E80022F001021A671A6F22F004021A6718E048
:1010F8001C4A136843F48073136000F055FE0646DB
:10110800184B1B6813F4807FE3D100F04DFE801B61
:101118006428F5D90320D9E0114A136F43F001037D
:101128001367A36853B300F03FFE06460C4B1B6FD2
:1011380013F0020F33D100F037FE801B41F28833E1
:101148009842F3D90320C1E0052B0DD0044B1A6F48
:1011580022F001021A671A6F22F004021A67E0E708
:101168000038024000700040604B1A6F42F00402E1
:101178001A671A6F42F001021A67D2E700F014FEEC
:1011880006465A4B1B6F13F0020F08D000F00CFEF6
:10119800801B41F288339842F3D9032096E0FDB9C9
:1011A800A369002B00F09180504A926802F00C026B
:1011B800082A59D0022B19D04C4A136823F080739F
:1011C800136000F0F1FD0446484B1B6813F0007FE4
:1011D80048D000F0E9FD001B0228F5D9032075E08E
:1011E800424A136C23F080531364D9E73F4A1368CB
:1011F80023F08073136000F0D7FD05463B4B1B6856
:1012080013F0007F06D000F0CFFD401B0228F5D96F
:1012180003205BE0E369226A1343626A43EA8213AC
:10122800A26A5208013A43EA0243E26A43EA0263C5
:10123800226B43EA02732D4A5360136843F08073AC
:10124800136000F0B1FD0446284B1B6813F0007FC3
:1012580006D100F0A9FD001B0228F5D9032035E0CE
:10126800002033E0002031E0204A5268012B2FD0C3
:1012780002F48003E1698B422CD102F03F03216A1A
:101288008B4229D1616A47F6C0731340B3EB811FC3
:1012980024D102F44031A36A5B08013BB1EB034F50
:1012A8001ED102F07063E16AB3EB016F1AD102F04C
:1012B800E042236BB2EB037F16D1002006E0012049
:1012C8007047012002E0012000E0002002B070BD5C
:1012D8000120FBE70120F9E70120F7E70120F5E706
:1012E8000120F3E70120F1E70120EFE70038024091
:1012F800F8B5244B9B6803F00C03042B3DD0082B56
:101308003DD1204B5A6802F03F025B6813F4800F0E
:1013180012D01C4B5968C1F3881100231A48A1FB4D
:101328000001FFF71DF8174B5B68C3F30143013356
:101338005B00B0FBF3F023E0124B5B68C3F3881348
:101348005C010025E41A65F10005AE0146EA9466E1
:10135800A701381B66EB0501CC0044EA5074C500B0
:10136800E81844F100018B0243EA905384022046B6
:1013780019460023FEF7F4FFD5E7034800E00348C9
:10138800F8BD00BF0038024040787D010024F40019
:10139800002800F0A08070B50D460446524B1B682B
:1013A80003F00F038B420BD24F4A136823F00F034D
:1013B8000B431360136803F00F038B4240F08D80DA
:1013C800236813F0020F17D013F0040F04D0474A14
:1013D800936843F4E0539360236813F0080F04D034
:1013E800424A936843F460439360404A936823F009
:1013F800F003A1680B439360236813F0010F31D009
:101408006368012B20D0022B25D0384A126812F0CD
:10141800020F64D035498A6822F0030213438B60B7
:1014280000F0C2FC0646314B9B6803F00C0362686F
:10143800B3EB820F16D000F0B7FC801B41F2883363
:101448009842F0D9032045E0284A126812F4003F78
:10145800E0D101203EE0254A126812F0007FD9D180
:10146800012037E0204B1B6803F00F03AB420AD979
:101478001D4A136823F00F032B431360136803F00E
:101488000F03AB422DD1236813F0040F06D0174A7F
:10149800936823F4E053E1680B439360236813F0E7
:1014A800080F07D0114A936823F46043216943EA7F
:1014B800C1039360FFF71CFF0C4B9B68C3F3031336
:1014C8000B4AD35CD8400B4B18600B4B186800F0E4
:1014D8002DFC002070BD012070470120FAE7012093
:1014E800F8E70120F6E700BF003C02400038024060
:1014F800441E00080800002004000020014B186862
:10150800704700BF0800002008B5FFF7F7FF044B3D
:101518009B68C3F38223034AD35CD84008BD00BF4D
:1015280000380240541E000808B5FFF7E7FF044BD7
:101538009B68C3F34233034AD35CD84008BD00BF5D
:1015480000380240541E0008F0B583B0044606680F
:1015580016F001060DD0B54B9A6822F400029A6085
:101568009A68416B0A439A60436B002B00F05581DF
:101578000026256815F4002511D0AC4AD2F88C3025
:1015880023F44013E16B0B43C2F88C30E36BB3F5E3
:10159800801F00F04481002B00F043810025236860
:1015A80013F4801F0FD0A14AD2F88C3023F44003E3
:1015B800216C0B43C2F88C30236CB3F5800F00F01C
:1015C800328103B90125236813F0807F00D00126FA
:1015D80013F0200F40F02C81236813F0100F0CD06B
:1015E800924BD3F88C2022F08072C3F88C20D3F869
:1015F8008C20A16B0A43C3F88C20236813F4804F16
:1016080008D08A4AD2F8903023F44033616E0B43F5
:10161800C2F89030236813F4004F08D0834AD2F8F8
:10162800903023F44023A16E0B43C2F89030236816
:1016380013F4803F08D07D4AD2F8903023F4401349
:10164800E16E0B43C2F89030236813F4003F08D0D2
:10165800764AD2F8903023F44003216F0B43C2F846
:101668009030236813F0400F08D0704AD2F89030B9
:1016780023F00303616C0B43C2F89030236813F026
:10168800800F08D0694AD2F8903023F00C03A16C7F
:101698000B43C2F89030236813F4807F08D0634A64
:1016A800D2F8903023F03003E16C0B43C2F890304D
:1016B800236813F4007F08D05C4AD2F8903023F0F6
:1016C800C003216D0B43C2F89030236813F4806F78
:1016D80008D0564AD2F8903023F44073616D0B431A
:1016E800C2F89030236813F4006F08D04F4AD2F83C
:1016F800903023F44063A16D0B43C2F89030236807
:1017080013F4805F08D0494AD2F8903023F440534C
:10171800E16D0B43C2F89030236813F4005F08D0E2
:10172800424AD2F8903023F44043216E0B43C2F86A
:101738009030236813F4800F08D03C4AD2F89030D8
:1017480023F08063A16F0B43C2F89030236813F431
:10175800001F0DD0354AD2F8903023F00063E16FB6
:101768000B43C2F89030E36FB3F1006F00F0C6800E
:10177800236813F0080F00D0012513F4802F08D038
:101788002A4AD2F8903023F04073616F0B43C2F8B5
:101798009030236813F4000F09D0244AD2F890300F
:1017A80023F08053D4F880100B43C2F8903023689C
:1017B80013F0806F09D01D4AD2F8903023F00053FF
:1017C800D4F884100B43C2F89030236813F0006FEC
:1017D80009D0164AD2F88C3023F00073D4F8881058
:1017E8000B43C2F88C30236813F0805F09D00F4A8E
:1017F800D2F88C3023F08063D4F88C100B43C2F8F5
:101808008C30002E7CD12368B3F1007F78D0012D75
:1018180000F00981002003B0F0BD0126A9E60126E9
:10182800B9E60125BBE60126CBE600BF0038024039
:10183800B74B1A6C42F080521A641B6C03F0805349
:101848000193019BB34A136843F48073136000F05B
:10185800ABFA0746AF4B1B6813F4807F06D100F044
:10186800A3FAC01B6428F5D90320D4E7A84B1B6F43
:1018780013F4407315D0226B02F440729A4210D0D0
:10188800A34B1A6F22F44072196F41F48031196723
:10189800196F21F4803119671A671B6F13F0010F54
:1018A80012D1236B03F44072B2F5407F1DD0984AE1
:1018B800936823F4F813936095490B6F226BC2F376
:1018C8000B0213430B6787E600F06EFA0746904B4E
:1018D8001B6F13F0020FE4D100F066FAC01B41F24F
:1018E80088339842F3D9032095E78948826822F41F
:1018F800F812894919400A438260DDE7012537E774
:10190800834A136823F08063136000F04DFA06469B
:101918007F4B1B6813F0006F06D000F045FA801B60
:101928006428F5D9032076E7236813F0010F13D054
:10193800636B8BB9764AD2F88430D2F88410606829
:1019480003F4403343EA801301F070610B43A1684C
:1019580043EA0173C2F88430236813F4002F03D0DC
:10196800E26BB2F5801F06D013F4801F1ED0236CE3
:10197800B3F5800F1AD1664AD2F88430D2F88410B1
:10198800606803F4403343EA8013E06843EA006385
:1019980001F0E0410B43C2F88430D2F88C3023F0D8
:1019A8001F03616A01390B43C2F88C30236813F0B6
:1019B800807F11D0564AD2F88400D2F88410666825
:1019C80023691B0443EA861300F07060034301F0A7
:1019D800E0410B43C2F88430236813F0007F0DD038
:1019E800626823691B0443EA8213E26843EA0263DC
:1019F800A26843EA0273464AC2F88430444A13682C
:101A080043F08063136000F0CFF90646404B1B6833
:101A180013F0006F7FF4FBAE00F0C6F9801B64285A
:101A2800F4D90320F7E63A4A136823F08053136089
:101A380000F0BAF90546364B1B6813F0005F06D074
:101A480000F0B2F9401B6428F5D90320E3E62368C7
:101A580013F4002F01D0E26B22B113F4801F1DD0C4
:101A6800236CDBB92A4AD2F88830D2F8881060692A
:101A780003F4403343EA8013A06943EA006301F0AA
:101A8800E0410B43C2F88830D2F88C3023F4F85385
:101A9800A16A013943EA0123C2F88C30236813F4A0
:101AA800001F03D0E36FB3F1006F37D0236813F042
:101AB800080F19D0164AD2F88810D2F88830606911
:101AC80003F4403343EA801301F070610B43E1698A
:101AD80043EA0173C2F88830D2F88C3023F44033DB
:101AE800E16A0B43C2F88C30094A136843F080530B
:101AF800136000F059F90446054B1B6813F0005FAA
:101B08001FD100F051F9001B6428F5D9032082E6A3
:101B18000038024000700040FFFCFF0F0A4AD2F86C
:101B28008800D2F888106569236A1B0443EA851384
:101B380000F07060034301F0E0410B43C2F88830C5
:101B4800B4E7002067E600BF0038024000230F2BEF
:101B580000F2E380F0B583B039E0092200E000220A
:101B6800B2403A4302346D4E46F824206C4A146859
:101B7800EA4324EA05064F6817F4803F01D045EA96
:101B88000406674C2660646802EA04064F6817F486
:101B9800003F01D045EA0406614C6660A46802EA89
:101BA80004064F6817F4801F01D045EA04065C4C10
:101BB800A660E46822404E6816F4001F01D045EA8A
:101BC8000402574CE26001330F2B00F2A48001227B
:101BD8009A400C6804EA020532EA0404F3D14C681E
:101BE800661E112C18BF012E01D9122C12D186683D
:101BF8005F000324BC4026EA0406CC68BC4034439A
:101C08008460466826EA02064C68C4F300129A40CB
:101C180032434260C7685E000324B440E24327EAC7
:101C280004078C68B4403C43C4604C68122C18BF4D
:101C3800022C13D1DF08083750F827E003F0070417
:101C48004FEA840C0F2404FA0CF42EEA040E0C69F3
:101C580004FA0CF444EA0E0440F8274004681440DF
:101C68004A6802F00302B240224302604A6812F056
:101C7800805FA8D02B4A546C44F480445464526C5E
:101C880002F480420192019A9C08A61C234A52F849
:101C9800267003F0030296000F22B24027EA0207DB
:101CA800214A90423FF45BAF02F58062904222D015
:101CB80002F58062904220D002F5806290421ED0E8
:101CC80002F5806290421CD002F5806290421AD0E0
:101CD80002F58062904218D002F58062904216D0D8
:101CE80002F58062904214D002F5806290423FF47F
:101CF80034AF0A2234E7012232E7022230E7032216
:101D08002EE704222CE705222AE7062228E70722E5
:101D180026E7082224E703B0F0BD704700380140E9
:101D2800003C0140003802400000024010B5044663
:101D38000E4B18784FF47A73B3FBF0F30C4A106823
:101D4800B0FBF3F0FEF7AEFD68B90F2C01D9012006
:101D58000AE0002221464FF0FF30FEF771FD054BE7
:101D68001C60002000E0012010BD00BF0000002022
:101D7800080000200400002008B50320FEF74EFDEF
:101D88000020FFF7D3FFFEF7F9FC002008BD000094
:101D9800034A1168034B1B780B441360704700BF5C
:101DA800A800002000000020014B1868704700BF01
:101DB800A8000020054BD3F8882042F47002C3F82D
:101DC80088204FF000629A60704700BF00ED00E085
:101DD800DFF834D0002103E00C4B5B58435004314A
:101DE8000B480C4B42189A42F6D30B4A02E00023E8
:101DF80042F8043B094B9A42F9D3FFF7DBFFFEF7A1
:101E08003BFAFEF7A5FC7047000008206C1E00088E
:101E1800000000200C0000200C000020AC00002076
:101E2800FEE70000F8B500BFF8BC08BC9E46704746
:0C1E3800F8B500BFF8BC08BC9E4670471F
:101E44000000000000000000010203040607080966
:081E540000000000010203047C
:081E5C003CE5FF7F01000000DE
:041E6400610200080F
:041E68003902000833
:0C1E6C0001000000100000000024F40041
:0400000508001DD9F9
:00000001FF
